:020000040800F2
:10000000A04D00204D020008E31900086D03000810
:10001000E1190008B10700088D1E0008000000006B
:100020000000000000000000000000005F02000867
:10003000B307000800000000BB020008291A0008EE
:1000400067020008670200086702000867020008EC
:1000500067020008670200086702000867020008DC
:1000600067020008670200086702000867020008CC
:1000700067020008670200086702000867020008BC
:1000800067020008670200086702000867020008AC
:10009000670200086702000867020008670200089C
:1000A000670200086702000867020008670200088C
:1000B000670200086702000867020008670200087C
:1000C000670200086702000867020008670200086C
:1000D000670200083D1E000867020008670200086A
:1000E000670200086702000867020008670200084C
:1000F000670200086702000867020008670200083C
:10010000670200086702000867020008670200082B
:10011000670200086702000867020008670200081B
:10012000670200086702000867020008670200080B
:1001300067020008670200086702000867020008FB
:1001400067020008670200086702000867020008EB
:1001500067020008670200086702000867020008DB
:1001600067020008670200086702000867020008CB
:10017000670200086702000867020008000000002C
:1001800067020008670200086702000867020008AB
:10019000670200086702000867020008670200089B
:1001A00067020008670200086702000800F002F812
:1001B00000F03CF80AA090E8000C82448344AAF1C5
:1001C0000107DA4501D100F031F8AFF2090EBAE8C3
:1001D0000F0013F0010F18BFFB1A43F0010318477B
:1001E0006848000088480000103A24BF78C878C1E9
:1001F000FAD8520724BF30C830C144BF04680C602D
:10020000704700000023002400250026103A28BF74
:1002100078C1FBD8520728BF30C148BF0B60704778
:100220001FB504F0F2F91FBD10B510BD00F082FA41
:100230001146FFF7F5FF00F0B6FA00F0A0FA03B49C
:10024000FFF7F2FF03BC00F0A7FA0000094880475F
:1002500009480047FEE7FEE7FEE7FEE7FEE7FEE7A8
:10026000FEE7FEE7FEE7FEE704480549054A064BC0
:10027000704700004D1B0008AD010008A04300209E
:10028000A04D0020A0450020A0450020EFF31080E5
:1002900072B6704780F310887047424A1368012B8A
:1002A00004D04FF0010313603F4A10603F4A1160D1
:1002B0003F484FF0805101607047EFF3108272B6F3
:1002C0003848016851B34FF00001016036480168B9
:1002D00091B1EFF309811EF0100F08BF21ED108BD3
:1002E00021E9F00F4FF000041EF0100F08BF0124A9
:1002F00041F8044D006801602C490968096808C983
:10030000B1E8F00F002B18BFB1EC108B81F3098816
:100310004EF0100E002B18BF2EF0100E82F3108836
:100320004EF0040E704721490860EFF3148222F06A
:10033000040282F314881C494FF000000860194938
:100340004FF0010008601B481B49D0F8002041EA2B
:100350000201016016484FF08051016017480068A3
:10036000006880F3088861B662B670471EF0040F1B
:100370000CBFEFF30880EFF3098020E9F00F40F89D
:1003800004ED40F804ED1EF0040F0CBF80F3088864
:1003900080F3098800B502F0C9FF5DF804EB4EF068
:1003A000040E704798000020900000209400002068
:1003B00004ED00E020ED00E00000FFFF08ED00E0AC
:1003C00053EA020C00F069802DE9F04B4FF0000673
:1003D000002B1FBFB3FA83F503FA05F424FA05F6E0
:1003E0005E4012BF1643B2FA82F502FA05F4C5F177
:1003F00020051EBF22FA05FC44EA0C04203556EA0B
:10040000044C4FEA144418BF641C4FF000084FF02E
:100410000009904271EB030C39D3002919BFB1FADE
:1004200081F701FA07F6B0FA80F700FA07F6C7F18C
:1004300020071EBF20FA07FC46EA0C062037B6FB51
:10044000F4FCA7EB0507103F07F01F0BCBF12006CC
:100450000CFA0BFB2CFA06F644BFB3460026202FFD
:10046000A4BF5E464FF0000B5BEA060C08BF4FF0DE
:10047000010B19EB0B09ABFB027C48EB0608C01B18
:1004800006FB02CC0BFB03CC71EB0C01C1E70B4666
:10049000024641464846BDE8F08B13B54FF00000D8
:1004A0004FF00001AFF30080BDE81C40704740EA08
:1004B0000103024630B59B0710D14FF0013400E034
:1004C00008C208C91D1B9D4315EAC41FF8D013F0CC
:1004D000FF0102F8011B0DD01B0AF8E711F8013BE0
:1004E000002B02F8013B05D011F8013B002B02F86C
:1004F000013BF3D130BD10B5431C02E010F8011BE5
:1005000071B18107FAD14FF0013202C88C1A8C43C5
:1005100014EAC211F9D0C01A0A0603D0C01E10BDD9
:10052000C01A10BD0A0401D0801E10BD0902FCD003
:10053000401E10BD40EA010370B59B072ED14FF05D
:100540000136042A2AD308C810C99D1B9D43121FD7
:1005500015EAC61517D0D8B2E1B2401A50EA0561C3
:1005600010D198B2A1B2401A50EA05410AD123F045
:100570007F4024F07F41401A50EA052102D1180E35
:10058000A0EB146070BDA342DBD018BA21BA884238
:1005900001D9012070BD4FF0FF3070BD0AB90020B5
:1005A00070BD10F8013B11F8014B63B1A3420AD1B1
:1005B000521E08D010F8013B11F8014B1BB1A342A9
:1005C00001D1521EEDD1181B70BD421E12F8013F21
:1005D000002BFBD111F8013B002B02F8013BF9D1B4
:1005E000704710B5203AC0F00B80B1E81850203A9F
:1005F000A0E81850B1E81850A0E81850BFF4F5AFC3
:100600005FEA027C24BFB1E81850A0E8185044BF4C
:1006100018C918C0BDE810405FEA827C24BF51F8B9
:10062000043B40F8043B08BF7047D20728BF31F8AD
:10063000023B48BF11F8012B28BF20F8023B48BFFE
:1006400000F8012B70474FF000020429C0F012801F
:1006500010F0030C00F01B80CCF1040CBCF1020F75
:1006600018BF00F8012BA8BF20F8022BA1EB0C014A
:1006700000F00DB85FEAC17C24BF00F8012B00F840
:10068000012B48BF00F8012B70474FF0000200B566
:10069000134694469646203922BFA0E80C50A0E8A5
:1006A0000C50B1F12001BFF4F7AF090728BFA0E853
:1006B0000C5048BF0CC05DF804EB890028BF40F81F
:1006C000042B08BF704748BF20F8022B11F0804F61
:1006D00018BF00F8012B704710B5044610F0030F47
:1006E00008BF11F0030F40F015804FF0013E121FBC
:1006F000C0F20E8051F8043BA3EB0E0C2CEA030C65
:100700001CEACE1C08BF40F8043BF0D0A1F1040164
:1007100002F10402521E08DB11F8013B002B00F825
:10072000013BF7D11146FFF78EFF204610BD704701
:1007300070477047754600F02BF8AE4605006946D5
:10074000534620F00700854618B020B5FFF78CFD12
:10075000BDE820404FF000064FF000074FF00008C2
:100760004FF0000B21F00701AC46ACE8C009ACE843
:10077000C009ACE8C009ACE8C0098D46704710B5A7
:100780000446AFF300802046BDE81040FFF757BD98
:10079000004870473C43002001491820ABBEFEE7EB
:1007A00026000200704710B503F07EFE002010BD49
:1007B000FEE7704772B6FEE72DE9F0410446876D0B
:1007C00000F076F9064694F835000025022806D098
:1007D0008020606584F834500120BDE8F0812068F5
:1007E000016821F0160101602068416921F0800153
:1007F0004161206C08B9A06C20B12068016821F02B
:10080000080101602068016821F0010101600CE02D
:1008100000F04EF9801B052807D9202060650320D1
:1008200084F8350084F83450D7E720680068C007A2
:10083000EED194F85C103F208840B860012084F825
:10084000350084F834500020C7E790F835100229AD
:1008500003D08021416501207047052180F83510C3
:100860000068016821F0010101600020704700006C
:100870002DE9F84FDFF8F8A10022012403254FF0FD
:100880000F090AF1040BAAF1040E00BF0B6804FA69
:1008900002F63340B34270D10F7907F00307012FFE
:1008A00001D0022F16D187684FEA420805FA08FCEA
:1008B00027EA0C07D1F80CC00CFA08FC4CEA070C2C
:1008C000C0F808C04768B7430E79C6F300169640D3
:1008D0003E4346600E79F643B6070AD0C7684FEA32
:1008E000420C05FA0CF6B7438E6806FA0CF63E4346
:1008F000C6600E7906F00306022E10D1D60800EB72
:100900008608D8F8206057074FEAD76C09FA0CF729
:10091000BE430F6907FA0CF73743C8F82070066822
:100920004FEA420C05FA0CF7BE430F7907F00307B4
:1009300007FA0CF7374307604E6816F4403F1CD0A7
:100940004C4E376847F480473760366822F003071B
:1009500006F480460096484E07EB060CDCF8086863
:1009600097073F0F09FA07F826EA0806DFF80C8117
:10097000404503D14FF0000841E072E0DFF800810C
:10098000404502D14FF0010839E0DFF8F8804045DA
:1009900002D14FF0020832E0DFF8EC80404502D18E
:1009A0004FF003082BE0DFF8E480404502D14FF020
:1009B000040824E0DFF8D880404502D14FF0050854
:1009C0001DE0DFF8D080404502D14FF0060816E068
:1009D000DFF8C480404502D14FF007080FE0DFF890
:1009E000BC80404502D14FF0080808E0DFF8B08035
:1009F000404502D14FF0090801E04FF00A0808FA1B
:100A000007F848EA0608CCF80888DAF80060574684
:100A1000D1F804C09E435FEACC2C00D51E433E6053
:100A2000DBF800605F46D1F804C09E435FEA8C2C7F
:100A300000D51E433E60DEF800607746D1F804C062
:100A40009E435FEA8C3C00D51E433E60084F083F42
:100A50003E68D1F804C09E435FEACC3C00D51E43FB
:100A60003E60521C102AFFF411AFBDE8F88F000061
:100A7000083C014044380240003001400000024080
:100A80000004024000080240000C02400010024036
:100A90000014024000180240001C024000200240E6
:100AA000002402400AB1816170470904FBE700009D
:100AB00001488068704700000C00002090F83D203D
:100AC000202A01D002207047242280F83D200268AD
:100AD000136823F0010313600268536A23F01003C4
:100AE00053620268536A0B43536201680A6842F01A
:100AF00001020A60202180F83D100020704790F824
:100B00003D20202A01D002207047242280F83D2079
:100B10000268136823F00103136003685A6A22F025
:100B20000F020A4391B2596201680A6842F0010259
:100B30000A60202180F83D100020704770B5040045
:100B400025D094F83D00002520B984F83C5020467B
:100B500000F0B8F8242084F83D002068016821F0F6
:100B6000010101602068016841F4004101602068D2
:100B7000016821F40041016000F00AFA4D4A616801
:100B8000914201D84C4900E04C49884201D20120F1
:100B900070BD4B492368B0FBF1F15E6826F03F065B
:100BA0000E435E606368934206D94FF496735943CF
:100BB0004FF47A73B1FBF3F12368491C1E6A26F0E7
:100BC0003F06314319626168914210D84900401EC6
:100BD000B0FBF1F2521CC2F30B02042A01D2042032
:100BE00022E0B0FBF1F0401CC0F30B001CE0A26857
:100BF000F2B301EBC10303EB0116431EB3FBF6F3A3
:100C00005B1C43F480431B0549D092B301EBC10246
:100C100002EB0111401EB0FBF1F0401CC0F30B00D1
:100C200040F4804040F400402168CA694CF6FF73EC
:100C30009A431043C861D4E9071001432068026851
:100C400022F0C00211430160D4E90301014320688E
:100C5000826848F2FF339A4311438160D4E9050169
:100C600008432168CA6822F0FF021043C86001E00F
:100C70000EE016E02068016841F001010160256482
:100C8000202084F83D00256384F83E50002070BD8C
:100C900001EB4106431EB3FBF6F35B1CB3E70120F7
:100CA000C2E701EB4101401EB0FBF1F0401CC0F374
:100CB0000B00B7E7A086010080841E0000093D00FC
:100CC00040420F0010B586B0044614216846FFF775
:100CD000DCFC13492068884220D1124800210268B8
:100CE00042F080020260006800F080000590302031
:100CF00000901220CDE9010102200390042004900D
:100D000069460948FFF7B4FD06481030016841F410
:100D100080010160006800F48000059006B010BDFD
:100D20000058004030380240001C02400B4810B50B
:100D3000016841F400710160016841F48061016063
:100D4000016841F480710160032000F06FF8002019
:100D500000F006F800F024F8002010BD003C02402E
:100D600070B50D4D04464FF47A712878B1FBF0F060
:100D70000A490968B1FBF0F000F0A4FB48B9102C57
:100D800007D200222146501E00F030F800206C608F
:100D900070BD012070BD00000C0000201800002074
:100DA0000A4808B5016841F480410160006800F418
:100DB000804000900548001F016841F080510160AB
:100DC000006800F08050009008BD000044380240E8
:100DD000002809DB00F01F0201219140400980003A
:100DE00000F1E020C0F8001170470000F0B40E4B95
:100DF0001B680C46C3F30223C3F10705042D00D979
:100E00000425191D072901D2002300E0DB1E01265D
:100E100006FA05F1491E214099409E40761E164073
:100E20003143F0BC01F033B80CED00E0064900F0AE
:100E3000070208684FF6FF03184040EA0220034A01
:100E400010430860704700000CED00E00000FA0558
:100E50002DE9F0470E46050065D0DFF81481D8F87B
:100E60000000F7B200F00F00B04207D288F800701F
:100E7000D8F8000000F00F00B04254D128683D4C73
:100E8000810712D5400703D5206840F4E050206068
:100E90002878000703D5206840F46040206020686F
:100EA000A96820F0F000084320602878C0072DD002
:100EB000304968680839012812D0022813D0032865
:100EC00011D00968890700292DDA216821F0030172
:100ED00001432160FFF7ECFD814641F2883A0EE0C4
:100EE00009688903EFE709688901ECE7FFF7E0FD8E
:100EF000A0EB0901514502D90320BDE8F087206825
:100F0000696800F00C00B0EB810FEFD1D8F8001049
:100F1000404601F00F01B14207D90770006800F0A8
:100F20000F00B04201D00120E7E72878400705D53F
:100F30002068E96820F4E050084320602878000722
:100F400006D52068296920F4604040EAC10020608D
:100F500000F03EF82168084AC1F30311515CC84013
:100F60000649086006480068FFF7FAFE0020C4E75B
:100F7000003C0240083802401446000818000020D7
:100F80001000002001480068704700001800002091
:100F90000448054900680968044AC1F38221515C8C
:100FA000C840704718000020083802402446000856
:100FB0000448054900680968044AC1F34231515C9C
:100FC000C840704718000020083802402446000836
:100FD000154810B5006810F00C02144813D01449DD
:100FE000042A0FD0082A0ED10F4C241F2268236830
:100FF00002F03F025B0207D52068C0F38810A0FB17
:10100000010106E0084610BD2168C1F38811A1FB6B
:1010100000010023FFF7D4F92168C1F30141491C05
:101020004900B0FBF1F010BD083802400024F40084
:1010300040787D012DE9F84F04006ED02078DFF86C
:101040004C93C007A9F104054AD009F104000168D6
:10105000C1F38101012908D00068C0F38100022892
:101060000AD1D9F80000400206D52868800337D598
:1010700060680028E1D033E06068B0F5803F10D0B0
:10108000B0F5A02F286810D020F4803028602868A0
:1010900020F4802028606068A8B1FFF709FD0646AB
:1010A0000DE0286840F48030F4E740F480202860A8
:1010B000F7E700BFFFF7FCFC801B642873D82868A3
:1010C0008003F7D50CE0FFF7F3FC064605E000BF10
:1010D000FFF7EEFC801B6428F0D828688003F7D463
:1010E0002078DFF8AC8280074FF0000A3ED5A74891
:1010F000001D016811F00C0F08D00068C0F38100DA
:1011000002280BD1D9F80000400207D428688007D4
:1011100016D5E068012800D112E033E1E068B8B1EB
:101120000120C8F80000FFF7C3FC064605E000BF39
:10113000FFF7BEFC801B0228C0D828688007F7D5BF
:101140002868216920F0F80040EAC10028600DE01D
:10115000C8F800A0FFF7ACFC064604E0FFF7A8FCC7
:10116000801B02281FD828688007F7D42078000742
:1011700022D5864F87486169703771B101210160BE
:10118000FFF796FC064604E0FFF792FC801B02285E
:1011900009D838688007F7D50EE0C0F800A0FFF73F
:1011A00087FC064605E082E0FFF782FC801B0228F0
:1011B0007DD838688007F7D42078400768D5DFF8F5
:1011C000CCB100270BF13C0BDBF80000C0000BD4C6
:1011D000DBF8001041F08051CBF80010DBF8000084
:1011E000012700F0805000906B4E3068C00510D48D
:1011F000306840F480703060FFF75AFC009005E0E2
:10120000FFF756FC0099401A022850D83068C005F4
:10121000F6D55E4EA0686C3601280FD005283068E0
:1012200010D020F001003060306820F00400306001
:10123000A068B8B1FFF73CFC00900FE0306840F0C8
:101240000100F4E740F004003060F7E7FFF730FCFE
:101250000099411A41F28830814266D8306880078F
:10126000F4D50EE0FFF724FC009007E0FFF720FC28
:101270000099411A41F28830814256D8306880077F
:10128000F4D42FB1DBF8001021F08051CBF800101E
:10129000A069C8B33D49091D0968C1F3810102294C
:1012A0004AD00228504607D0C8F8600000E03CE071
:1012B000FFF7FEFB04463BE04746C8F86000FFF737
:1012C000F7FB064605E000BFFFF7F2FB801B022894
:1012D0002BD828688001F7D4D4E907010843A16A14
:1012E0002E4A490802EB0141626A41EA8211084331
:1012F00094F82C1040EA0161C9F80010012038660A
:10130000FFF7D6FB044606E03EE000BFFFF7D0FB48
:10131000001B022809D828688001F7D534E000BFF7
:10132000FFF7C6FB001B022802D90320BDE8F88F97
:1013300028688001F4D427E00128F7D0D9F800000C
:10134000E26900F4800191421CD1226A00F03F0161
:10135000914217D147F6C071626A0140B1EB821F1A
:1013600010D1A26A4FF0FF3300F4403103EB520278
:10137000B1EB024F06D194F82C1000F07060B0EB86
:10138000016F01D00120D1E70020CFE704380240EF
:1013900000004742800E4742007000400000FFFFFF
:1013A00070B5040009D0606A002540B1256165610F
:1013B000A56294F8510040B10CE0012070BD606856
:1013C000B0F5827FF4D0E561F2E784F85050204612
:1013D00000F044F8022084F851002068016821F0F0
:1013E00040010160A088218900F4827001F4044169
:1013F0000843A18901F400610843217C01F0020146
:101400000843217D01F001010843218B01F40071A3
:101410000843217F01F03801084394F8201001F0BF
:1014200080010843218D01F40051084321680860C0
:10143000A069042101EA104094F8241001F0100181
:101440000843216848602068C16921F40061C161D6
:101450006565012084F85100002070BD10B586B08C
:10146000044614216846FFF710F9134920688842A2
:1014700020D112480021026842F4805202600068C4
:1014800000F4805005900D481438026842F00102C3
:101490000260006800F001000590E020009002204A
:1014A000CDE901010320039005200490694604481A
:1014B000FFF7DEF906B010BD0030014044380240AD
:1014C0000000024010B5401EB0F1807F01D3012022
:1014D00010BD4FF0E02460610F21601700F0D7FCD1
:1014E0000020A06107202061002010BD70477047D8
:1014F000F8B5016804460868CA684B6910F00F0F18
:101500004FF000055AD003F0010602F490773743FC
:1015100065D0C10705D0D10503D5216C41F001018B
:101520002164410705D5D90703D0216C41F00201A0
:101530002164810705D5D90703D0216C41F004014E
:101540002164010707D502F02001314303D0216C4B
:1015500041F008012164216C00293BD0800604D5AC
:10156000900602D5204600F028FB20684069216CD7
:10157000C0F3801001F00801014320462BD000F099
:10158000F5FA20684069400621D52068143050E8FB
:10159000001F21F0400140E80012002AF5D1A06BA5
:1015A000A8B16C490165A06BFFF74FF9002811D075
:1015B000A06B016D01B0BDE8F040084783060ED571
:1015C00093060CD52046BDE8F84000F0F6BA204658
:1015D000FFF78DFFF8BDFFF78AFF2564F8BD266B86
:1015E0002023012E79D1C60677D5D60675D5086891
:1015F000486800904869400640D5A16B086840687B
:101600000004000CEAD0A28D8242E7D9E085C869C7
:10161000B0F5807F2DD020680C3050E8001F21F4F9
:10162000807140E80012002AF5D12068143050E89B
:10163000001F21F0010140E80012002AF5D12068C6
:10164000143050E8001F21F0400140E80012002A49
:10165000F5D184F83E30256320680C3050E8001F37
:1016600021F0100140E80012002AF5D1A06BFFF72D
:10167000A3F8A08DE18D401A81B229E0A08DE18D03
:10168000401A81B2E08D0028A8D00029A6D0206899
:101690000C3050E8002F22F4907240E80026002E13
:1016A000F5D12068143050E8002F22F0010240E804
:1016B0000026002EF5D184F83E30256320680C30DA
:1016C00050E8002F22F0100240E80023002BF5D153
:1016D0002046FFF70BFFF8BDFFE705062BD51506E3
:1016E00029D594F83D002128F5D1A068B0F5805F98
:1016F00001D12069B0B1206A411C216221680078C3
:101700004860E08C401E0004000CE084E3D12068B7
:10171000C16821F08001C1602068C16841F04001CA
:10172000C160D8E7206A0088C0F308004860206ADA
:10173000801C2062E5E74006CDD55006CBD5CA68AF
:10174000204622F04002CA6084F83D3000F0F3F8F1
:10175000C1E700005D1B000870B5040004D094F8D8
:101760003D00002510B106E0012070BD84F83C501A
:10177000204600F023F8242084F83D002068C1684A
:1017800021F40051C160204600F078FA2068016918
:1017900021F4904101612068416921F02A014161F1
:1017A0002068C16841F40051C1602564202084F89C
:1017B0003D0084F83E00002070BD000010B586B0EA
:1017C000044614216846FEF760FF1B4920688842E2
:1017D00030D11A48016841F010010160006800F042
:1017E0001000059015481438016841F001010160AE
:1017F0000068134C00F0010005904FF40070009059
:101800000220019001200290032003900720049001
:1018100069462046FFF72CF82015009069462046BF
:10182000FFF726F8002211462520FFF7DFFA2520D2
:10183000FFF7CEFA06B010BD001001404438024058
:101840000000024090F83E30202B0ED159B152B129
:1018500090F83C30012B08D0012380F83C30002365
:10186000036300F091BA0120704702207047000026
:10187000012202490248FFF7E5BF000008000020EE
:101880006C0200202DE9F843044690F83D001F4605
:1018900016460D4620284CD1C5B1BEB194F83C0087
:1018A000012846D0012084F83C004FF00008C4F81D
:1018B0004080212084F83D00FFF7FAF8A684814695
:1018C000E684A068B0F5805F03D004E00120BDE8A5
:1018D000F883206928B12E465FF0000584F83C802B
:1018E0000EE00026FAE78021204600F06AFAA0B94F
:1018F000AEB116F8010B21684860E08C401EE08410
:10190000E08C4B464FF0000200970028EBD14FF0DF
:101910004001204600F055FA30B10320D7E735F8F2
:10192000020BC0F30800E6E7202084F83D00002009
:10193000CDE70220CBE77047144810B5124901608B
:101940001349416000214FF480428160C0E90312D5
:1019500041618161C1610162FFF7F0F808B1FEF7F2
:1019600029FF00210948FFF7A9F808B1FEF722FF77
:1019700000210648FFF7C3F8002803D0BDE8104057
:10198000FEF718BF10BD000000580040B002002054
:10199000801A0600104810B5016886B041F00201B7
:1019A00001600068012100F0020005900320CDE9EC
:1019B0000210CDE90001094C69462046FEF758FFA8
:1019C000012202212046FFF76DF801221146204630
:1019D000FFF768F806B010BD30380240000402403E
:1019E000FEE7FEE70F4810B50D4901604FF4827124
:1019F000416000218160C1604FF400720161C0E963
:101A00000512C1610162416281620A21C162FFF770
:101A1000C7FC002803D0BDE81040FEF7CBBE10BDC8
:101A2000003001400403002010B501F0A9FD02F0D0
:101A3000EFFABDE8104001F0B1BD000030B593B041
:101A400030216846FEF721FE14210CA8FEF71DFE8A
:101A50001D480025016841F080510160006800F0D8
:101A6000805011901948016821F4404141F48041AF
:101A700001600068022400F44040119001200090B1
:101A8000000401908001CDE90640192008909020C3
:101A9000CDE9090404200B906846FFF7CBFA08B1A2
:101AA00072B6FEE70CA90F2081E831004FF4805098
:101AB0000F90109002210CA8FFF7CAF9002801D05E
:101AC00072B6FEE713B030BD4038024000700040EF
:101AD00070B5194C2068194A10F00C01184804D050
:101AE000184D042903D0082903D002601BE00560CB
:101AF00019E01149091F0B68C3F380560B6803F006
:101B00003F0316B1B5FBF3F201E0B2FBF3F20B6851
:101B10000968C3F388135A43C1F30141491C4900C2
:101B2000B2FBF1F101602168074AC1F30311515C76
:101B30000268CA40026070BD083802400024F40008
:101B40001800002040787D01144600080248016812
:101B500041F470010160704788ED00E010B5806BC2
:101B60000021C185C184FFF7C2FC10BD01680C31A2
:101B700051E8002F22F4907241E80023002BF5D1A8
:101B80000168143151E8002F22F0010241E80023DE
:101B9000002BF5D1016B012909D101680C3151E805
:101BA000002F22F0100241E80023002BF5D1202164
:101BB00080F83E1000210163704708B590F83E1090
:101BC000222901D0022008BD82684FF480539A4236
:101BD00001D1016921B1816A9A421BD04AB10AE060
:101BE0000268816A5268C2F308020A80816A891C0D
:101BF00008E0026972B10268526802F07F020A705E
:101C0000816A491C8162C18D491E0904090CC18584
:101C100003D019E002685268F1E70168CA6822F04F
:101C20002002CA600168CA6822F48072CA60016832
:101C30004A6922F001024A61202180F83E10016BBE
:101C4000012903D0FFF714FE002008BD0021016325
:101C500001680C3151E8002F22F0100241E8002306
:101C6000002BF5D101680A68D20602D50A684968D6
:101C70000091818DFFF73AFCE6E7000070B504465D
:101C800000680169E26821F4405111430161216952
:101C9000A068E26908436169114308432168CA6882
:101CA00049F20C639A430243CA6020684169A26901
:101CB00021F440711143416131492068884202D0CA
:101CC0003049884202D1FFF773F901E0FFF760F96C
:101CD000E2690023192164253226B2F5004F6268BB
:101CE00028D0A0FB0101930F9200FEF769FB01468B
:101CF000B0FBF5F06FF01802504301EB800006EBEB
:101D00000010B0FBF5F000F0F002B1FBF5F002EBD3
:101D10000012B1FBF5F06FF01803584301EB80009F
:101D200006EB0010B0FBF5F000F00F002168104446
:101D3000886070BDA0FB010192185B41FEF740FB7B
:101D40000146B0FBF5F00201B1FBF5F06FF01803AE
:101D5000584301EB800006EBC000B0FBF5F000F04B
:101D6000F80002EB4002B1FBF5F0584301EB8000B4
:101D700006EBC000B0FBF5F000F00700D6E700006E
:101D8000001001400014014081628285C28500215B
:101D90000164222280F83E2080F83C10016921B1C4
:101DA0000168CA6842F48072CA6001684A6942F0F8
:101DB00001024A610068C16841F02001C160002051
:101DC00070472DE9F041984617460E460446069D99
:101DD00027E0681C25D02DB1FEF76AFEA0EB0800B5
:101DE000A8421ED920680C3050E8001F21F4D071A1
:101DF00040E80012002AF5D12068143050E8001F96
:101E000021F0010140E80012002AF5D1202084F8D9
:101E10003D0084F83E00002084F83C000320BDE82B
:101E2000F0812068006836EA000004D00020B84243
:101E3000CFD00020F3E70120F9E700000148FFF7C9
:101E400057BB00006C0200200E4810B50C49016021
:101E50004FF4E1314160002181600C22C160C0E992
:101E600004128161C161FFF777FC08B1FEF7A2FCA3
:101E7000BDE81040012204490248FFF7E3BC00001E
:101E8000001001406C02002008000020FEE7090756
:101E9000090E002804DB00F1E02080F800147047F0
:101EA00000F00F0000F1E02080F8141D70470000E2
:101EB000002807D00E4910F0FF0F04D051FA80F02F
:101EC0000078401C704710F47F4F04D0C0F3072007
:101ED000085C0930704710F47F0F04D0C0F307404E
:101EE000085C1130704701EB1060007819307047C2
:101EF0002C4600082DE9F04F89B092468B460646E5
:101F0000002400E0641C305D202803D0092801D0A3
:101F10005C45F7D34FF0FF387CB3194804F106094C
:101F2000184F056811E0062217A12868FEF702FB8A
:101F300050B9286822463146801DFEF7FBFA18B9D1
:101F4000296811F8090020B10C3538688542EAD3B8
:101F500014E0AC688CB120216846FEF796FB6A4617
:101F60005946304600F084FF38B16946A047CAF8A8
:101F70000000002009B0BDE8F08FFFE74046F9E718
:101F80009C000020A00000205F5F636D645F000084
:101F90002DE9FC411F460446DDE90831DDE90A650B
:101FA000143040600060C4E90827C4E90A310A46D9
:101FB000232118461C3401F0E1FBD4E90301421847
:101FC000D4E90101104B121F01F0BCFA44F81A0BBE
:101FD000002004F801690D4A04F8036BE4E80205E7
:101FE00044F8105901C404F83C0B01C444F87409C6
:101FF000009023460190194604F1440002F09CF839
:102000000020BDE8FC810000313D00084F3F000882
:1020100010B5029C24F001044472C0E907120021AB
:10202000C0E9093114304060006010BD143001F087
:102030000ABB70B50546FEF729F9296F044609B1B8
:10204000284688472046BDE87040FEF723B90000C7
:1020500010B51BA001F0B0FA1C4C21781CA001F0B7
:10206000ABFA2078C00702D01FA001F0A5FA2078B3
:10207000800702D51FA001F09FFA2078400702D503
:102080001FA001F099FA2078000702D520A001F0E6
:1020900093FA2078C00602D520A001F08DFA2078AE
:1020A000000607D509480F300168BDE810401DA0A3
:1020B00001F082BABDE810401EA001F07DBA000018
:1020C000627573206661756C743A0A0029ED00E050
:1020D0005343425F434653525F424653523A30782D
:1020E00025303258200000004942555345525220B5
:1020F0000000000050524543495345525220000011
:10210000494D50524543495345525220000000006A
:10211000554E53544B4552522000000053544B45EA
:10212000525220005343422D3E424641523A2530FE
:1021300038580A000A00000010B500F0C7FA002065
:1021400010BD10B500F098FB002010BD104810B570
:10215000416991F82110890703D40E4900200870C5
:1021600013E0016921B180220A48FEF7B5FA0CE0BC
:1021700000F07CFE08B108A100E009A10548FEF7C7
:1021800096F909A10348FEF720FA024810BD0000A5
:102190009C000020B84200206D7368200000000001
:1021A00066696E73682000003E00000003494969BB
:1021B00011F8212F60F341020A7070479C00002043
:1021C000014AC2E9000170479C0000207CB5164915
:1021D0001648FFF7F5FF7821012000F095FF144C19
:1021E0006061D0B10A211520CDE900014FF4806370
:1021F0000022104910A001F076FD054600231A4682
:102200000FA1606901F0E2FB0120FFF7CFFF15B1DC
:10221000284601F065FE00207CBD0BA001F0CCF942
:102220004FF0FF307CBD0000484A0008A04900087C
:102230009C00002061220008747368656C6C0000CB
:1022400073687278000000006E6F206D656D6F72AC
:102250007920666F72207368656C6C0A000000005C
:10226000984D686910F8211F41F001010170FFF7D6
:102270006DFF01F0A1F9002601F020F80400FBD465
:102280001B2C07D0686990F82010012907D002297B
:102290000ED017E06969012081F82000ECE75B2C83
:1022A00002D080F820600DE0022180F82010E3E7E2
:1022B00080F82060412CDFD0422CDDD0442C38D077
:1022C000432C43D0002CD7D0FF2CD5D0092C4ED096
:1022D0007F2C75D0082C73D00D2C70D00A2CFCD01C
:1022E000B0F87210502901D3A0F87260B0F87430C1
:1022F000B0F872108B427DD2CA1A00F1220123304D
:102300001944184401F020FA6869B0F874102230BA
:102310000C54686990F82110C90706D0B0F8741001
:102320002230014468A001F047F96869B0F87440B0
:10233000A5E0B0F8740000289ED064A001F03CF93C
:10234000686930F8741F491E018095E7B0F8741071
:10235000B0F8722091428FD22230095C5CA001F06B
:102360002BF9696931F8740F401C088084E7002458
:1023700003E056A001F020F9641C6869B0F874000D
:10238000A042F6DC6C6953A0223401F015F900F08C
:102390006DFD012802D1204600F0A4FCFFF7D6FE17
:1023A000014622464CA001F007F968692230FEF789
:1023B000A2F8696921F8720F48805DE700E03DE00E
:1023C000B0F87420002AC0D0B0F87210521E491E16
:1023D00089B293B2A0F87210A0F87430994224D94F
:1023E000CA1A00F1230122301944184401F0ACF953
:1023F000686900E049E0B0F8721022300E54686954
:10240000B0F874102230014435A001F0D5F86869A5
:10241000B0F8744003E02DA001F0CEF8641C6869A8
:10242000B0F87200A04290DBF5E72FA001F0C4F8ED
:102430006869B0F8721022300E541DE700F016FDE6
:1024400001280DD1686990F82100C00702D021A0B1
:1024500001F0B2F86869B0F87210223000F098FC10
:10246000FFF774FE01F0A8F8686950212230FEF7EA
:10247000EAF8686922E015A001F09EF8641C68691A
:10248000B0F87200A042F6DC0AE022300C54686911
:1024900090F82100C00703D021460DA001F08CF870
:1024A0006869B0F87210491C89B2A0F87210B0F8CF
:1024B0007420521CA0F874205029BED320F8726FEB
:1024C0004680D9E69C00002025730000080000002B
:1024D000256300000A00000025732573000000003A
:1024E00008257320200800000820080010B5124CB1
:1024F0002068800702D511A001F05EF82068400036
:1025000011D50D48C01E007808B1FFF7A1FD0A489B
:10251000001F007808B100F079FB0748801E008892
:1025200008B102F005F82068002804DABDE8104080
:1025300008A001F041B810BD2CED00E06661696CA7
:10254000656420766563746F722066657463680ADB
:10255000000000006465627567206576656E740A28
:102560000000000010B502A001F026F8002010BD08
:1025700048656C6C6F2052542D54687265616421FB
:102580000A000000094D4FF47A7400220221284607
:10259000FEF788FA204601F057FC01220221284666
:1025A000FEF780FA204601F04FFCEEE700040240FF
:1025B000094D4FF47A74012211462846FEF772FA4B
:1025C000204601F041FC002201212846FEF76AFA6C
:1025D000204601F039FCEEE70004024070B50CA083
:1025E00000F0EAFF0F48104D04680BE002220FA133
:1025F0002068FDF79FFF20B1D4E900120CA000F085
:10260000DBFF0C3428688442F0D3002070BD00004A
:102610002D2D46756E6374696F6E204C6973743A24
:102620000A0000009C000020A00000205F5F000066
:10263000252D313673202D2D2025730A0000000032
:102640002DE9F04104461E4617460D46084601F0A6
:1026500003F9001D2060257200206760C4E9036053
:10266000BDE8F0812DE9F0410D4600212961E968BE
:1026700091B1297A81B12E6888B10446FDF706FE32
:102680000146A4F10C002A7A007A20F080009042E2
:1026900009D00846FDF7FEFD0020BDE8F081344674
:1026A000FDF7F4FD0146686800272468B44201D1B3
:1026B000002404E010C0EA687F1CBA42F5D1084645
:1026C000FDF7E8FD20462F61E7E7000010B5074C55
:1026D00007A0E16800F070FF0AA0216900F06CFF1C
:1026E0006169BDE810400CA000F066BF2400002026
:1026F000746F74616C206D656D6F72793A2025641A
:102700000A00000075736564206D656D6F72792035
:102710003A2025640A0000006D6178696D756D20AE
:10272000616C6C6F6361746564206D656D6F727947
:102730003A2025640A0000002DE9F04194B00027FA
:1027400033A408230BAA022105A8FFF779FF08206C
:1027500080460146224631A000F02EFF404600F0A0
:10276000EFFB35A000F028FF05A93846FFF77AFFF8
:102770000746002642E00BA850F826400C3CFDF727
:1027800085FD217A9DF81C2021F08001914202D024
:10279000FDF780FD31E0FDF77DFD04F11400616976
:1027A000054681421ED000F033FFA18BCDE9001019
:1027B00023460822414626A000F0FEFE2C680BE0CE
:1027C000A4F1140126A000F0F7FE2068A84202D070
:1027D00024A000F0F1FE2468AC42F1D115A000F075
:1027E000EBFE0AE000F014FFA18BCDE900102346B8
:1027F000082241461CA000F0DFFE761C0998B0427A
:10280000B9DC002FB0D114B00020BDE8F081000089
:1028100073656D6170686F7265000000252D2A2E4A
:1028200073207620202073757370656E6420746841
:10283000726561640A000000202D2D2D202D2D2DA4
:102840002D2D2D2D2D2D2D2D2D2D2D0A000000008F
:10285000252D2A2E2A7320253033642025643A0042
:10286000257300002F000000252D2A2E2A73202515
:102870003033642025640A002DE9F041B4B000260D
:102880003CA408232CAA012126A8FFF7D9FE082082
:10289000804601462246394800F08EFE404600F050
:1028A0004FFB37A000F088FE26A93046FFF7DAFE7E
:1028B0000646002554E02CA850F825400C3CFDF7B6
:1028C000E5FC0746207A9DF8A01020F080008842A1
:1028D00003D03846FDF7DEFC41E07822214607A808
:1028E000FDF77FFE3846FDF7D5FC94F835000090E3
:1028F00023460822414632A000F05EFE94F83400E0
:1029000000F00F00012807D0022807D040B10428AA
:1029100008D0032808D00AE02CA006E02EA004E08E
:1029200030A002E032A000E034A000F045FEA06A32
:10293000014600E0401C0278232AFBD0E26A401ADC
:10294000101A64235843B0FBF2F3276B206CCDE9D7
:102950000007E069081A81182BA000F02DFE6D1CFD
:102960002A98A842A7DC002E9ED134B00020BDE8F2
:10297000F0810000746872656164000050470008CF
:10298000202D2D2D20202D2D2D2D2D2D2D202D2DAB
:102990002D2D2D2D2D2D2D2D202D2D2D2D2D2D2D74
:1029A0002D2D2D20202D2D2D2D2D2D20202D2D2D8B
:1029B0002D2D2D2D2D2D2D202D2D2D0A000000002B
:1029C000252D2A2E2A73202533642000207265616C
:1029D00064792020000000002073757370656E64B8
:1029E0000000000020696E697420202000000000B3
:1029F00020636C6F73652020000000002072756EEC
:102A00006E696E670000000020307825303878202D
:102A10003078253038782020202025303264252554
:102A200020202030782530387820253033640A0083
:102A3000F0B593B0002626A408230BAA0A2104A807
:102A4000FFF7FEFD08272246394623A000F0B4FD1B
:102A5000384600F075FA2AA000F0AEFD04A9304611
:102A6000FFF700FE0646002524E00BA850F825409D
:102A70000C3CFDF70BFC217A9DF8182021F0800119
:102A8000914202D0FDF706FC13E0FDF703FCD4E908
:102A90000901CDE9000123460822394621A000F0B2
:102AA0008BFD607AC00701D024A000E026A000F0D2
:102AB00083FD6D1C0898A842D7DC002ECED101F012
:102AC000A1FA014624A000F077FD13B00020F0BD6C
:102AD00074696D6572000000252D2A2E7320207008
:102AE0006572696F64696320202074696D656F7514
:102AF0007420202020202020666C61670A000000DE
:102B0000202D2D2D2D2D2D2D2D2D2D202D2D2D2D0F
:102B10002D2D2D2D2D2D202D2D2D2D2D2D2D2D2DF2
:102B20002D2D0A00252D2A2E2A73203078253038A5
:102B3000782030782530387820000000616374698F
:102B400076617465640A0000646561637469766126
:102B50007465640A0000000063757272656E74200B
:102B60007469636B3A3078253038780A00000000C9
:102B70002DE9FF41FEF70EFFFFF766F9FEF7DCFED9
:102B8000FEF730FF6427154814251026CDE900070D
:102B9000CDE902650023124A12A1F03801F03CF998
:102BA000124C206018B90D48F03801F099F90B4823
:102BB000CDE902656430CDE9000700230C4A0DA180
:102BC000DC3801F029F9606018B90448783801F060
:102BD00087F904B00020BDE8F0810000A4010020C6
:102BE000852500086C6564300000000000000020AE
:102BF000B12500086C6564310000000010B500F0DC
:102C00009FFABDE81040FFF7B3BF000010B518A051
:102C100000F0D2FC1B4C21781BA000F0CDFC2078EA
:102C2000C00702D01EA000F0C7FC2078800702D5A4
:102C30001EA000F0C1FC2078000702D51EA000F005
:102C4000BBFC2078C00602D51EA000F0B5FC2078A1
:102C5000000607D50B480C300168BDE810401CA0E9
:102C600000F0AABCBDE810401D4800F0A5BC000063
:102C70006D656D206D616E616765206661756C7450
:102C80003A0A000028ED00E05343425F43465352A6
:102C90005F4D4653523A30782530325820000000BC
:102CA0004941434356494F4C2000000044414343AF
:102CB00056494F4C200000004D554E53544B455241
:102CC000522000004D53544B45525220000000004A
:102CD0005343422D3E4D4D41523A253038580A005B
:102CE000A04500082DE9F0478046002500782C46D5
:102CF00018B12248224F066831E0BDE8F0470021B4
:102D0000084600F077B806221EA13068FDF712FCD5
:102D100020BB306800F106094046FDF7ECFB024697
:102D200049464046FDF706FCC0B925B94C46484621
:102D3000FDF7E1FB05464946204601E0401C491CE1
:102D400002781AB10B780BB19A42F7D0001BA84257
:102D500000DA054649460DA000F02EFC0C36386816
:102D60008642D0D3002C06D02A4621464046BDE8F4
:102D7000F04700F019BFBDE8F08700009C0000207C
:102D8000A00000205F5F636D645F000025730A0090
:102D900038B5044601E0491E641C59B1207820284A
:102DA000F9D00928F7D06A462046FFF7A3F818B1F2
:102DB000204604E0002038BD009838BD401C017852
:102DC000202901D00029F9D100210170214603A05A
:102DD00000F0F2FB4FF0FF3038BD000025733A20C1
:102DE000636F6D6D616E64206E6F7420666F756EBB
:102DF000642E0A0070B50EA000F0DEFB1348144DDF
:102E000004680CE0062213A12068FDF793FB28B9A3
:102E1000D4E9001211A0891D00F0CEFB0C34286803
:102E20008442EFD310A000F0C7FB002070BD00006B
:102E300052542D546872656164207368656C6C200F
:102E4000636F6D6D616E64733A0A00009C00002030
:102E5000A00000205F5F636D645F0000252D3136A8
:102E600073202D2025730A000A00000001207047FE
:102E700070B5002315461C461A464BE000F8012B9E
:102E80005B1C0678202E01D0092E01D18B42F5D390
:102E9000082C11D321A000F08FFB002606E000BF14
:102EA00055F8261025A000F087FB761CA642F7D324
:102EB00021A000F081FB2FE08B422DD2F6B2222E12
:102EC00003D045F82400641C1BE0401C45F8240096
:102ED0005B1C641C08E05C2E04D14678222E01D1D4
:102EE000401C5B1C401C5B1C0678222E01D08B42D0
:102EF000F1D38B4210D200F8012B5B1C0AE0401C7E
:102F00005B1C0678202E03D0092E01D08B42F6D30D
:102F10008B4201D28B42B4D3204670BD546F6F20D8
:102F20006D616E7920617267732021205765206F73
:102F30006E6C79205573653A0A00000025732000F5
:102F400010B5044602E003A000F036FB641EFAD27E
:102F500010BD00002D00000030B5134943680A6819
:102F6000134402F1080498420DD05D885DB94D68A4
:102F7000AB4208D08D689D4200D188605D68456095
:102F80005B68851A1D518368134483420BD05D88AA
:102F9000002D08D18D68854200D18B604168596051
:102FA0004068991A015130BD240000202DE9F04FEE
:102FB00085B09946DDE90EA5109CAB46630602D5A7
:102FC000DFF814C103E0DFF810C1ACF1110CE30627
:102FD00001D524F00104E30701D0302300E02023D1
:102FE00000260493A3070BD5002A02DA2D265242AD
:102FF00006E0630701D52B2602E0230700D5202633
:103000000023EE4622B930228DF8002001230CE087
:10301000B9F10A0F14D002F00F0812091CF8088049
:103020000EF803805B1C002AF2D1AB4200DD1D4686
:10303000AAEB050214F0110F4FF0200708D015E09D
:103040000A27B2FBF7F807FB1828B2FBF7F2E5E70F
:103050003EB1002A05DD521E03E0884200D207700F
:10306000401CB2F1000CA2F10102F6DC26B188424C
:1030700000D20670401C521EE40605D508E08842C6
:1030800001D2049C0470401C141EA2F10102F6DC63
:1030900030242E466D1E9E420ADD884200D2047006
:1030A000401CF6E7884201D2E55C0570401C00E058
:1030B00074461D1EA3F1010307DDBBF1000FF1D122
:1030C00003E0884200D20770401C131EA2F10102E7
:1030D000F7DC05B0BDE8F08F3D4700081CB51421B2
:1030E0000A20CDE900014FF480630022034904A0C7
:1030F00000F0F9FDBDE81C4000F0F2BEFD2B000819
:103100006D61696E0000000070B54843044600F030
:10311000A3FA050003D02246002100F02FFB284629
:1031200070BD000070B5044C044D02E0206880477B
:10313000241DAC42FAD370BD8C49000894490008A4
:1031400070B5044C044D02E020688047241DAC4259
:10315000FAD370BD944900089C49000810B5FDF7EA
:1031600095F8044A5188491C5180BDE81040FDF78C
:1031700091B800006C00002010B5FDF787F80B4CEB
:103180006188491E09B2618000290ADC0021618042
:10319000FDF780F86068002807D0BDE8104000F017
:1031A0009DBBBDE81040FDF775B810BD6C00002058
:1031B00070B5002833D01A4D296888422FD369682A
:1031C00088422CD2A0F10C044FF0FF31154800F0DA
:1031D00034FC60884FF4F55610B12088B04208D016
:1031E00011A000F0E9F923886288214615A000F0BB
:1031F000E3F9002060802680A868844200D2AC6099
:1032000029686068611A401A2969081A28612046ED
:10321000FFF7A2FEBDE87040024800F0E9BB70BDB8
:103220002400002054050020746F2066726565201C
:103230006120626164206461746120626C6F636B01
:103240003A0A00006D656D3A203078253038782CC8
:10325000207573656420666C61673A2025642C20B4
:103260006D6167696320636F64653A20307825304B
:1032700034780A0000487047740600200048704700
:103280007442002010B5FDF751FDFEF7D7FBFEF7A5
:103290001FFCFDF777FE4FF47A71B0FBF1F0FEF7FB
:1032A00011F9FFF73FFFFFF7E9FF0446FFF7E2FFE1
:1032B0002146BDE8104000F08BBC0000084810B566
:1032C00000684FF0FF340168C943890602D44068A2
:1032D000C4B202E00A2000F0B7FDE0B210BD000069
:1032E00074420020F8B506460D200F498DF8000005
:1032F000002481F83C40304600F04EFC05460FE0CB
:10330000305D0A2805D101231A4669460648FEF7B2
:10331000B9FA012331191A460348FEF7B3FA641CBF
:10332000AC42EDD3F8BD00007442002070B53149C5
:103330000546283009682C1D11B18847002857D050
:103340002DA0216C00F038F92FA0616A00F034F94B
:1033500031A0A16A00F030F933A0E16A00F02CF945
:1033600035A0216B00F028F937A0616800F024F93E
:1033700039A0A16800F020F93BA0E16800F01CF939
:103380003DA0216900F018F93FA0616900F014F92F
:1033900041A0A16900F010F943A0E16900F00CF927
:1033A00045A0216A00F008F947A0616B00F004F91C
:1033B00049A0A16B00F000F94BA0E16B00F0FCF814
:1033C0002878400708D500F065FD01464AA000F0C6
:1033D000F3F8FFF751FA02E04FA000F0EDF828787B
:1033E000C00602D453A000F0E7F8FFF77FF8FEE72D
:1033F00070BD00008C0000207073723A2030782578
:103400003038780A000000007230303A20307825D9
:103410003038780A000000007230313A20307825C8
:103420003038780A000000007230323A20307825B7
:103430003038780A000000007230333A20307825A6
:103440003038780A000000007230343A2030782595
:103450003038780A000000007230353A2030782584
:103460003038780A000000007230363A2030782573
:103470003038780A000000007230373A2030782562
:103480003038780A000000007230383A2030782551
:103490003038780A000000007230393A2030782540
:1034A0003038780A000000007231303A2030782538
:1034B0003038780A000000007231313A2030782527
:1034C0003038780A000000007231323A2030782516
:1034D0003038780A00000000206C723A20307825DD
:1034E0003038780A000000002070633A20307825D8
:1034F0003038780A000000006861726420666175E7
:103500006C74206F6E207468726561643A20257354
:103510000D0A0D0A00000000686172642066617582
:103520006C74206F6E2068616E646C65720D0A0D9C
:103530000A00000046505520616374697665210DCC
:103540000A00000070B50446121D22F00700002298
:103550000A4D443840F82250521C112AFAD34162D5
:1035600000218162C16200F13402016382E81A0025
:103570004FF080730364016070BD0000EFBEADDEEC
:1035800010B5FCF783FE044A1178491C1170BDE8A0
:103590001040FCF77FBE00002000002010B5FCF7B3
:1035A00075FE044A1178491E1170BDE81040FCF701
:1035B00071BE0000200000200FB47F2110B503ABC6
:1035C0000448029A00F026FE0248FFF78BFE10BC6A
:1035D0005DF814FBD40400200268516002680A60A0
:1035E0000160486070470268516002680A600160CB
:1035F000486070470268516002680A600160486074
:1036000070474268116042684A60416008607047D4
:103610000246002100E0491C00689042FBD10846A8
:103620007047D0E900124A60D0E900121160406092
:1036300000607047D0E900124A60D0E900121160C2
:10364000406000607047D0E900124A60D0E9001283
:1036500011604060006070472DE9F047002807D0F6
:10366000374CC01C20F00306E068864202D90020D7
:10367000BDE8F0870C2E00D20C264FF0FF31314808
:1036800000F0DBF9D4F808C02168E768ACEB010072
:10369000BA1B4FE00D186B88E3BB6B681B1A0C3B21
:1036A000B34246D36A6806F11803121A0C3A4FF077
:1036B00001094FF4F55A9A422DD383190C33CA18D5
:1036C0004FF00008A2F800A0A2F80280D5F804800C
:1036D000C2E901806B60A5F8029050680C37B842CF
:1036E00002D001F108028350206930440C3020617F
:1036F0006269824200D26061A5F800A0654512D1DE
:10370000A06842887AB1626890420CD04068084450
:10371000A060F6E70DE0A5F8029068686A1A801AC2
:1037200022691044E3E7074800F062F905F10C0054
:103730009EE768688242ADD8024800F059F996E7E2
:10374000240000205405002010B50346994211D2F0
:103750008C189C420ED9811804E000BF14F8013D7A
:1037600001F8013D521EF9D210BD00BF11F8014B06
:1037700003F8014B521EF9D210BD000010B50346EC
:10378000CCB2042A1AD3810718D1194644EA04237B
:1037900043EA034306E008C1103A08C141F8083B78
:1037A00041F8043C102AF6D201E008C1121F042A95
:1037B000FBD20B4602E000BF03F8014B521EFBD2C6
:1037C00010BD2DE9F0410F46064600F045F80546CC
:1037D000C068FFF741FF040019D00021EA68FFF735
:1037E000CDFF26720020607208223946204600F084
:1037F000DBF9FCF74BFD064604F10C01281DFFF731
:10380000EBFE3046FCF746FD2046BDE8F081002087
:10381000FBE770B5044600202072FCF737FD054633
:1038200004F10C00FFF7FDFE2846FCF733FD2046AF
:10383000BDE87040FFF7BCBC70B5044600202072A4
:10384000FCF724FD054604F10C00FFF7EAFE2846CC
:10385000BDE87040FCF71EBD074A002102EB0113D2
:103860001B78834202D102EB01107047491C0329E7
:10387000F4DB0020704700003C0000202DE9F041FF
:10388000044616460D460846FFF7E6FF0746FFF7D3
:1038900065FC381D796800E009688142FCD1FFF7BA
:1038A0006BFC45F08000207208223146204600F073
:1038B0007BF9FCF7EBFC054604F10C01381DFFF722
:1038C0008BFE2846BDE8F041FCF7E4BC007A000618
:1038D00001D50120704700207047000070B5FCF74B
:1038E000D5FC114C05466088B0B9A068FEF7E0FA37
:1038F0000E49401E626851F83010143991420BD0C5
:1039000020700B486160007801F11C01002802F171
:103910001C0006D0FCF7C1FC2846BDE87040FCF74F
:10392000B9BCFCF7BAFCF7E76C0000207405002076
:103930002000002010B50446FCF7A8FC024694F8CD
:1039400034000E4920F00F00401C84F8340094F835
:10395000350001EBC00104F114004B6818604B689E
:10396000A361486006486161A16B83681943816067
:10397000BDE810401046FCF78DBC00007405002027
:103980006C00002010B50446FCF780FC04F1140123
:10399000D1E900235360D1E900231A60A16161617C
:1039A00094F83520074951F8323001EBC2018B42BF
:1039B00004D10549A36B8A689A438A60BDE8104028
:1039C000FCF768BC740500206C0000202DE9F04174
:1039D00016460A461F4605460221FFF74FFF05F12E
:1039E0001404AC616C61AE836F720020BDE8F0819D
:1039F00070B50446FCF74AFC0546606904F1140101
:103A0000884208D0143800F026FA2846FCF742FC19
:103A1000FFF764FF09E0A08B4FF6FF71884206D2E2
:103A2000401CA0832846FCF735FC002070BD2846CA
:103A3000FCF730FC6FF0020070BD2DE9F341044645
:103A4000FCF724FC0746A08B28B1401EA083384613
:103A5000FCF720FC46E0019870B100F01BFA064626
:103A60000020306304F11405647A304600F04EFA09
:103A7000F4B1012C21D106E03846FCF70BFC6FF0C5
:103A80000100BDE8FC812C680EE096F8351094F832
:103A90002120A4F11400914205D206F11401143042
:103AA000FFF7AFFD02E02468AC42EED1AC4204D196
:103AB00006F114012846FFF7A4FD0198002809DD4E
:103AC00006F1440001AA0021044600F0FDFA204658
:103AD00000F046FB3846FCF7DDFBFFF7FFFE306BDE
:103AE0000028CED10020CCE708B509A0FFF764FD7F
:103AF0000AA0FFF761FD12A0009005230122032117
:103B000012A0FFF759FDBDE8084018A0FFF754BD0B
:103B10000A205C207C202F0A000000002D20525437
:103B2000202D2020202020546872656164204F7071
:103B300065726174696E672053797374656D0A00EC
:103B4000417072202035203230323300202F207C0B
:103B5000205C202020202025642E25642E25642032
:103B60006275696C642025730A00000020323030D1
:103B700036202D203230323020436F7079726967E1
:103B800068742062792072742D7468726561642093
:103B90007465616D0A000000014600E0491C0A7866
:103BA000002AFBD1081A704710B5002A07D0034637
:103BB00011F8014B03F8014B2CB1521EF8D110BD86
:103BC00003F8011B00E00021521EF9D110BD0000D6
:103BD0000A46C11C10B522F0030321F00301182B83
:103BE00020D9A3F118048C421CD3114C581A183850
:103BF0002160E0604FF4F5520A8000230C30C1E9E7
:103C000001034B804B68194461600A8001224A809D
:103C100048608860002307A10848FFF7D7FE2068A6
:103C2000A06010BD0146BDE8104005A0FFF7C4BC70
:103C30002400002068656170000000005405002029
:103C40006D656D20696E69742C206572726F7220CB
:103C5000626567696E206164647265737320307891
:103C600025782C20616E6420656E64206164647226
:103C700065737320307825780A00000010B50A4972
:103C800000230A4C4B80184604EBC002401C5260D3
:103C900012602028F8DB1F20087003484B600C30AE
:103CA0008B604060006010BD6C0000207405002037
:103CB00010B5074CA068FEF7FBF80649401E51F806
:103CC000300014386060BDE810401C30FCF72BBB9E
:103CD0006C000020740500200148406000607047BF
:103CE0008400002070472DE9FF478946DDE90C7606
:103CF000824601461D4690460120FFF762FD041EE4
:103D00000DD02846FFF7A8FC60B103968DE8A1000E
:103D100043464A4651462046FEF73AF9204604B04B
:103D2000BDE8F0872046FFF774FD0020F7E70000AC
:103D300070B514480468FCF7A9FA05462046FEF75A
:103D400078F92046FFF71EFE042084F8340004F1C1
:103D5000440000F0DDF92046FFF7B8FD01280CD043
:103D600004F114010848FFF73EFC00BFFFF7B6FD61
:103D70002846BDE87040FCF78DBA2046FFF75CFD91
:103D8000F4E70000700000207800002000F002F846
:103D9000FCE700002DE97040FCF778FA05460F4873
:103DA0000168814214D00168A1F11404D1E9000234
:103DB0004260D1E900021060496009604869FFF77C
:103DC000F7F92046FFF725FD2846FCF763FAE3E7FD
:103DD0002846BDE87040FCF75DBA0000780000207E
:103DE0001FB5202308481F22D9008DE80F000023AB
:103DF000064A07A1783800F00FF804B00248BDE881
:103E00001040783800F06CB8D40300208D3D0008D5
:103E10007469646C650000002DE9FF5F92460EAA8C
:103E20000C4692E8E0010A46994683460121FFF7D5
:103E300025FD8DE8E0014B46524621465846FEF7E7
:103E4000A7F804B0BDE8F09F10B500F0C1F8BDE8D8
:103E5000104000F025B870B5044690F8340000F02A
:103E60000F00022802D04FF0FF3070BDFCF70EFAB1
:103E7000054604F11400FFF7DDFB04F1440000F0F7
:103E8000B1F92846FCF706FA2046FFF753FD00205B
:103E900070BD0000014800687047000070000020FD
:103EA000F1B5FCF7F3F905460C480468204600F02C
:103EB0002DF804F144006A460021064600F004F99A
:103EC000304600F04DF92846FCF7E4F9FFF706FD0F
:103ED000206B801C00D120630020F8BD7000002002
:103EE00010B590F83610012280F835108A40022172
:103EF000826380F83410FFF7AEFF0348006808B112
:103F0000FFF7ECFC002010BD7000002070B50446E7
:103F100090F8340000F00F00012802D04FF0FF307D
:103F200070BDFCF7B3F905462046FFF72BFD94F86A
:103F3000340020F00F00801C84F8340004F14400A9
:103F400000F050F92846FCF7A5F9002070BD10B527
:103F500004466FF00100206304F11400FFF76AFBD0
:103F60002046FFF7E7FCBDE81040FFF7B7BC0000B4
:103F700070B5FCF78BF906461348046894F83400D2
:103F800000F00F00012819D1D4E90501884215D0AD
:103F900004F114000546FFF74DFB94F835000B497A
:103FA00001EBC00041680D604168696045602860B0
:103FB0003046FCF76FF9FFF791FC02E03046FCF762
:103FC00069F9002070BD0000700000207405002019
:103FD000002802DA4FF0FF3070474FF47A7190FBFF
:103FE000F1F290FBF1F301FB130000EB40034A43B5
:103FF000C3EBC0104B1E03EBC00090FBF1F010446C
:104000007047000001480068704700001C00002055
:10401000094810B50168491C0160FFF73BFF016CBE
:10402000491E016403D1C16B0164FFF7A1FFBDE824
:10403000104000F003B800001C0000202DE9FC41F6
:10404000CDF804D0CDF800D0FFF7DCFF0646FCF732
:104050001DF907461B4D2DE060696FF00041301AD5
:10406000143C884229D22046FDF7E0FF607A8107A0
:1040700002D420F00100607204F114018846684601
:10408000FFF7B8FAD4E907108847FFF7BBFF0646E9
:104090000098694688420DD04046FFF7D4FA607A0E
:1040A000810707D5C10705D020F0010060722046C6
:1040B00000F056F82C68AC42CED13846FCF7EAF84E
:1040C000BDE8FC818400002070B515460E4604460C
:1040D000FCF7DCF8052E17D2DFE806F00503080C24
:1040E0001100616A0FE0296861620DE0617A21F0D8
:1040F000020102E0617A41F00201617204E0617A3A
:10410000C90700D001212960FCF7C4F8002070BD68
:1041100070B50446FCF7BAF805462046FDF786FF61
:10412000607A20F0010060722846FCF7B3F8204660
:10413000FFF782FB002070BD2DE9F8439046DDE9D2
:1041400008450A461F4606460A21FFF797FB234605
:104150003A46414630460095FDF75AFFBDE8F883E0
:104160002DE9F8430446FCF791F880462046FDF718
:104170005DFF607A20F001006072FFF743FF616A23
:10418000174A4318A3620020009202EBC00269465E
:1041900056686FF000475DF820200AE01268A2EB35
:1041A000C0056D699D4202D0ED1ABD4203D341F8AE
:1041B0002020B242F2D10A48001F0168491C016068
:1041C00004F114010098FFF715FA607A40F001003D
:1041D00060724046FCF75EF80020BDE8F8830000FE
:1041E0008400002070B50446407AC0070ED0FCF76A
:1041F0004DF805462046FDF719FF607A20F00100D2
:1042000060722846FCF746F8002070BD4FF0FF3082
:1042100070BD00002DE9FF4F8946044600EB0907F9
:1042200083B080464FF0FF3A4FF0200BA74202D2F6
:104230005746C8F1FF390BE1252803D0BC4200D214
:10424000207080E000260599491C059108782D28EA
:1042500011D02B2812D0202813D0232814D0302896
:1042600015D00A785546303A0A2A13D205A800F02C
:1042700030F905461AE046F01006E4E746F0040679
:10428000E1E746F00806DEE746F02006DBE746F009
:104290000106D8E72A2809D10698491C059120C8AB
:1042A0000690002D02DA6D4246F010060598D446BD
:1042B00001782E2918D1401C05900178A1F1300217
:1042C0000A2A04D205A800F004F9844607E02A2946
:1042D00008D1401C0590069850F804CB0690BCF11C
:1042E000000F01DA4FF0000C059A002011786829C0
:1042F00001D06C2902D1521C0846059211780A237C
:104300006F2974D00CDC63291FD004DC25296FD001
:1043100058290DD184E0642901D0692908D183E0AE
:10432000702966D073292CD075297FD0782979D04F
:10433000BC4201D2252020700598641C0178E9B3A5
:10434000BC4200D22170641C7FE0F00608D45846BD
:104350006D1E002D04DDBC4200D22070641CF7E706
:104360000698BC4210F8041B069000D221705846F3
:1043700002E0BC4200D22070641C6D1E002DF8DCEF
:1043800063E0069802C8069001B941A1002000E050
:10439000401CA84202D00A5C002AF9D1BCF1000FEF
:1043A00002DD604500DD6046F2060BD45A462B461E
:1043B0006D1E834206DDBC4202D200E054E0227052
:1043C000641CF4E7002206E0BC4201D20B782370A3
:1043D000491C521C641C8242F6DB5A4629466D1E5B
:1043E000814232DDBC4200D22270641CF6E715E047
:1043F00010E0681C02D1082546F00106CDE9005CFA
:1044000006980296102304C806903946204619E003
:104410000CE007E0BC4296D2252011E7082305E016
:1044200046F04006102301E046F002066C2801D059
:1044300068281CD0069804C80690CDE9005C39466F
:1044400020460296FEF7B2FD04460598401C0590F2
:104450000598007800287FF4EFAEB9F1000F11D075
:10446000BC420DD220700DE0401E0590EDE706988D
:1044700030F8041B06908AB2B007DED512B2DCE732
:1044800007F8010C07B0A4EB0800BDE8F08F0000AE
:10449000284E554C4C2900000020704700207047E2
:1044A000002070470020704710B5FBF7EFFEFEF7C5
:1044B000E9FEFFF719FBFFF70FFCFFF7DFFBFEF745
:1044C0000DFEFFF70FFCFFF78BFCFFF7F1FB002061
:1044D00010BD10B5014600206FF02F0307E0541CFB
:1044E0000C60127800EB800003EB400010440A6877
:1044F0001478303C0A2CF2D310BD00000B4810B5E4
:10450000094901604FF4E1314160002181600C22D2
:10451000C160C0E904128161C161FDF71DF9002885
:1045200000D0FEE710BD00000010014074420020E2
:1045300010B518A0FFF740F81A4C21881AA0FFF711
:104540003BF82088C00702D01DA0FFF735F820886F
:10455000800702D51DA0FFF72FF82088400702D55D
:104560001DA0FFF729F82088000702D51CA0FFF73F
:1045700023F82088C00502D51BA0FFF71DF820886E
:10458000800502D51BA0FFF717F8BDE8104004A076
:10459000FFF712B87573616765206661756C743AD0
:1045A0000A0000002AED00E05343425F43465352A5
:1045B0005F554653523A307825303258200000007B
:1045C000554E444546494E5354522000494E565389
:1045D0005441544520000000494E565043200000ED
:1045E0004E4F435020000000554E414C49474E4528
:1045F0004420000044495642595A45524F20000079
:1046000010B5FFF771FA002010BD4FF04070E1EED9
:10461000100A7047000000000000000001020304BF
:104620000607080900000000010203040000010061
:10463000020001000300010002000100040001006B
:10464000020001000300010002000100050001005A
:10465000020001000300010002000100040001004B
:104660000200010003000100020001000600010039
:10467000020001000300010002000100040001002B
:10468000020001000300010002000100050001001A
:10469000020001000300010002000100040001000B
:1046A00002000100030001000200010007000100F8
:1046B00002000100030001000200010004000100EB
:1046C00002000100030001000200010005000100DA
:1046D00002000100030001000200010004000100CB
:1046E00002000100030001000200010006000100B9
:1046F00002000100030001000200010004000100AB
:104700000200010003000100020001000500010099
:10471000020001000300010002000100040001008A
:1047200002000100030001000200010030313233B9
:10473000343536373839616263646566003031324A
:10474000333435363738394142434445460000005A
:10475000252D2A2E73207072692020737461747560
:1047600073202020202020737020202020207374AC
:1047700061636B2073697A65206D6178207573655C
:1047800064206C656674207469636B2020657272A6
:104790006F720A006C6973745F6D656D006C69738C
:1047A00074206D656D6F727920757361676520691E
:1047B0006E666F726D6174696F6E0068656C6C6FA8
:1047C000007361792068656C6C6F20776F726C6420
:1047D0000076657273696F6E0073686F772052544C
:1047E0002D5468726561642076657273696F6E20FE
:1047F000696E666F726D6174696F6E005F5F636D85
:10480000645F76657273696F6E0073686F772052AC
:10481000542D5468726561642076657273696F6E99
:1048200020696E666F726D6174696F6E006C69737A
:10483000745F746872656164006C69737420746875
:1048400072656164005F5F636D645F6C6973745F60
:10485000746872656164006C697374207468726551
:104860006164006C6973745F73656D006C69737467
:104870002073656D6170686F726520696E20737951
:104880007374656D005F5F636D645F6C6973745F03
:1048900073656D006C6973742073656D6170686F0A
:1048A000726520696E2073797374656D006C69732D
:1048B000745F74696D6572006C6973742074696DDE
:1048C000657220696E2073797374656D005F5F6334
:1048D0006D645F6C6973745F74696D6572006C6997
:1048E00073742074696D657220696E2073797374B6
:1048F000656D006C697374006C69737420616C6C15
:104900002073796D626F6C20696E207379737465A2
:104910006D005F5F636D645F68656C700052542D5D
:10492000546872656164207368656C6C2068656C9E
:10493000702E005F5F636D645F7073004C69737409
:10494000207468726561647320696E2074686520E4
:1049500073797374656D2E005F5F636D645F66725B
:1049600065650053686F7720746865206D656D6FAD
:10497000727920757361676520696E20746865209F
:1049800073797374656D2E00A54400089D4400087A
:10499000FD44000899440008CD210008A144000806
:1049A000944700089D470008CD260008BB47000833
:1049B000C147000865250008D1470008D94700080D
:1049C00001460008FC4700080A48000801460008A4
:1049D0002D48000839480008792800084548000893
:1049E0005748000879280008634800086C48000808
:1049F000392700088548000894480008392700082E
:104A0000AD480008B8480008312A0008CD48000821
:104A1000DE480008312A0008F3480008F84800087A
:104A2000DD250008124900081D490008F52D000881
:104A3000334900083C490008432100085849000850
:104A40006349000839210008684A00080000002076
:104A5000B4000000E80100081C4B0008B40000206E
:104A6000EC4C000004020008000000000000000000
:104A70000000000001000000100000000000000025
:104A80000024F4000000000000000000000000000E
:104A90000000000000000000000000000000000016
:104AA0000000000001000000400000204000002045
:104AB000780000000200000050000020500000209C
:104AC000200000000A0000006000002060000020BC
:104AD0002C000000000000000000000000000000AA
:104AE00000000000000000000000000000000000C6
:104AF00000000000000000000000000000000000B6
:104B000000000000000000000000000000000000A5
:0C4B100000000000000000000000000099
:04000005080001AD41
:00000001FF
